:020000040800F2
:10000000E0060020AD3600080F0E0008110E0008B3
:10001000150E0008190E00081D0E00080000000053
:10002000000000000000000000000000210E000899
:10003000230E000800000000250E0008270E00080F
:10004000C7360008C7360008C7360008C73600089C
:10005000C7360008C7360008C7360008C73600088C
:10006000C7360008C7360008C7360008C73600087C
:10007000C7360008C7360008C7360008C73600086C
:10008000C7360008C7360008C7360008C73600085C
:10009000C7360008C7360008C7360008C73600084C
:1000A000C7360008C7360008C7360008C73600083C
:1000B000C7360008C7360008C7360008C73600082C
:1000C000C7360008C7360008C7360008C73600081C
:1000D000C7360008C7360008C7360008C73600080C
:1000E000C7360008C7360008C7360008C7360008FC
:1000F000C7360008C7360008C7360008C7360008EC
:10010000C7360008C7360008C7360008C7360008DB
:10011000C7360008C7360008C7360008C7360008CB
:10012000C7360008C7360008C7360008C7360008BB
:1001300000F002F800F03AF80AA090E8000C8244BF
:100140008344AAF10107DA4501D100F02FF8AFF29C
:10015000090EBAE80F0013F0010F18BFFB1A43F0A5
:1001600001031847D06F0000F06F0000103A24BF61
:1001700078C878C1FAD8520724BF30C830C144BF0C
:1001800004680C607047000000230024002500264E
:10019000103A28BF78C1FBD8520728BF30C148BFEA
:1001A0000B6070471FB51FBD10B510BD04F09EF861
:1001B0001146FFF7F7FF00F00DFE04F0BCF803B4A2
:1001C000FFF7F2FF03BC04F0BFF8000070B505466E
:1001D0000E4614463146284601F07EFE204601F0C8
:1001E0003AFE70BD2DE9F05F04460D4616461F46E7
:1001F000301B401C1FFA80FA781B401C1FFA80FB42
:100200003B4632462946204601F03CFE4FF00008AE
:100210000FE04FF0000906E00A9801F01CFE09F11A
:1002200001001FFA80F9D145F6DB08F101001FFA41
:1002300080F8D845EDDBFE484088401E83B2FC487C
:100240000088401E82B20021084601F01BFEBDE876
:10025000F09F2DE9FF4F85B081468A46002004902B
:1002600003900798A0EB09050898A0EB0A06CDF8C3
:100270000890CDF804A0002D01DD012705E00DB99F
:10028000002702E04FF0FF376D42002E02DD4FF0F5
:10029000010806E016B94FF0000802E04FF0FF3801
:1002A0007642B54201DD2C4600E034464FF0000BAB
:1002B00021E0019A91B2029A90B201F017FE0498DF
:1002C000284404900398304403900498A04205DD2C
:1002D0000498001B04900298384402900398A042AE
:1002E00005DD0398001B03900198404401900BF139
:1002F00001001FFA80FB601C8345DADD09B0BDE810
:10030000F08F2DE9F04104460D4616461F462B4658
:10031000324629462046FFF79CFF3B4622462946A7
:100320002046FFF796FF3B46324639462046FFF708
:1003300090FF3B46324629463046FFF78AFFBDE82C
:10034000F081F8B504460D4616461F46B9480088A8
:100350003B463246294600902046FFF743FFF8BD52
:100360002DE9F04104460D4616461F46DDF818807B
:10037000EA1991B2A21990B24246FFF727FFEA1993
:1003800091B2A21B90B24246FFF720FFEA1B91B246
:10039000A21990B24246FFF719FFEA1B91B2A21BC5
:1003A00090B24246FFF712FFAA1991B2E21990B239
:1003B0004246FFF70BFFAA1991B2E21B90B24246E8
:1003C000FFF704FFAA1B91B2E21990B24246FFF771
:1003D000FDFEAA1B91B2E21B90B24246FFF7F6FE69
:1003E000BDE8F0812DE9FF4F81B08246174698465F
:1003F000DDF838B0002445464FEA4800C0F1030656
:10040000BBF1000F1FD01BE0A14608E04B4622467F
:10041000009750460299FFF7A3FF09F10109A9458A
:10042000F4DD002E04DA042000FB0460861D06E0E3
:10043000601B042101FB006000F10A066D1E641CB4
:10044000AC42E1DD18E015E02B462246009750460D
:100450000299FFF785FF002E04DA042000FB0460F8
:10046000861D06E0601B042101FB006000F10A0606
:100470006D1E641CAC42E7DD05B0BDE8F08F2DE9D0
:10048000F04704460D4616461F46DDE908893B46FF
:10049000324629462046FFF7DCFE4B4642463946A7
:1004A0003046FFF7D6FE2B46224649464046FFF728
:1004B000D0FEBDE8F08702880B8803800A80704771
:1004C0002DE9FF4F85B000260027BDF81800BDF8C4
:1004D0002010884207DD08A906A8FFF7ECFF07A94E
:1004E00005A8FFF7E8FFBDF82000BDF84C108842D2
:1004F00007DD08A913A8FFF7DEFF07A912A8FFF779
:10050000DAFFBDF81800BDF82010884207DD08A901
:1005100006A8FFF7D0FF07A905A8FFF7CCFFBDF895
:100520001800BDF84C10884238D1BDF81400039073
:100530000490BDF81C00BDF81010884203DABDF825
:100540001C00049008E0BDF81C00BDF80C108842A7
:1005500002DDBDF81C000390BDF84800BDF8101086
:10056000884203DABDF84800049008E0BDF848006E
:10057000BDF80C10884202DDBDF8480003902D48FC
:1005800000880090BDF81830BDF80C201946BDF861
:100590001000FFF727FE09B0BDE8F08FBDF81C0082
:1005A000BDF81410A0EB010BBDF82000BDF8181029
:1005B000401A0290BDF84800BDF81410451ABDF865
:1005C0004C00BDF81810A0EB0109BDF84800BDF8BB
:1005D0001C10A0EB010ABDF84C00BDF82010401A19
:1005E0000190BDF82000BDF84C10884202D1BDF842
:1005F000208004E0BDF82000401E1FFA80F8BDF8FE
:1006000018402CE0029896FBF0F0BDF81410084456
:1006100080B2049097FBF9F0BDF81410084480B242
:1006200003905E442F44BDF81000BDF80C1003E0A9
:100630006C0000201E000020884203DD03A904A8EE
:10064000FFF739FFFE48008823460090BDF80C20D4
:100650002146BDF81000FFF7C5FD601C84B244457B
:10066000D0DDBDF82000201A00FB0AF6BDF8180006
:10067000201A00FB05F727E0019896FBF0F0BDF883
:100680001C10084480B2049097FBF9F0BDF81410D8
:10069000084480B2039056442F44BDF81000BDF8C2
:1006A0000C10884203DD03A904A8FFF704FFE44807
:1006B000008823460090BDF80C202146BDF81000AC
:1006C000FFF790FD601C84B2BDF84C008442D3DD7E
:1006D00000BF60E72DE9FF4F83B081468A4693460D
:1006E000DDE91064D64800880290A6F12000C6B269
:1006F00004EBD47009EB6000401E82B20AEB0400E8
:10070000401E83B251464846019401F0BBFB12984B
:1007100050BB002525E00C2C07D106EB4600C9494B
:1007200001EB800010F8058004E0C74800EB0610DC
:1007300010F8058000270DE008F0010018B15846B8
:1007400001F089FB02E0069801F085FB4FEA68089A
:10075000781CC7B204EBD471B7EB610FECDB681CFB
:10076000C5B2A542D7DB2DE0002529E00C2C07D12E
:1007700006EB4600B34901EB800010F8058004E069
:10078000B14800EB061010F80580002711E0AC48D6
:10079000A0F800B008F0010038B10AEB050291B2F0
:1007A00009EB070290B201F0A1FB4FEA6808781C40
:1007B000C7B204EBD471B7EB610FE8DB681CC5B2BC
:1007C000A542D3DB9E4902980880A0484088401E7D
:1007D00083B29E480088401E82B20021084601F084
:1007E00051FB07B0BDE8F08F2DE9FE4306460F46EA
:1007F00015461C46DDF828801DE094480088401E00
:10080000B04204DB91484088401EB84201DABDE89E
:10081000FE8320788DE821018D480388884802886E
:1008200039463046FFF756FF284605EBD07106EBF8
:1008300061018EB2641C20787E2802DC207820289A
:10084000DBDA00BFE3E710B50246012000E05043C9
:100850000B1EA1F10104E1B2F9D110BD2DE9FF4F4A
:1008600083B0074691461E46109C4FF0000A0025B3
:1008700043E0701B401EC1B20A20FFF7E4FFB9FB42
:10088000F0F00A21B0FBF1F201FB1208BAF1000FFF
:100890001BD1701EA84218DDB8F1000F13D1002043
:1008A0002021A346CDE90014029004EBDB7149102E
:1008B00001FB057188B266490B8861490A88049971
:1008C000FFF708FF17E04FF0010A002108F13000A0
:1008D000C0B2A346CDE90141009004EBDB714910A1
:1008E00001FB057188B25A490B8855490A88049959
:1008F000FFF7F0FE00BF681CC5B2B542B9DB07B018
:10090000BDE8F08F2DE9FC5F0546884691469A4682
:10091000DDF830B000953C20019000245FE004EB4E
:1009200004104C4911F810009BF80010884253D174
:1009300004EB0410474901EB400040789BF801109C
:10094000884249D108F10F0083B205F10F0082B24D
:100950004146284601F096FA00263BE0002734E0A5
:100960000D9890B904EB04103A4901EB4000801C4B
:10097000805D80213941084018B1484601F06BFA8A
:1009800021E0504601F067FA1DE02D48A0F80090E4
:1009900004EB04102F4901EB4000801C805D802196
:1009A0003941084018B14146284601F09FFA681CB9
:1009B00085B20098281A102805D1009D08F1010081
:1009C0001FFA80F803E0781CC7B2082FC8DB00BF0D
:1009D000701CC6B2202EC1DB00BF601C84B201981F
:1009E00084429CDB19484088401E83B21748008827
:1009F000401E82B20021084601F044FABDE8FC9F87
:100A00002DE9FC5F0546884691469A46DDF830B0F0
:100A1000009507200190002476E004EB840000EBB1
:100A200044100D4911F810009BF80010884268D15D
:100A300004EB840000EB4410074901EB40000DE09B
:100A40001E000020864D0008FA5100086C000020AE
:100A500020000020EA570008E25F000840789BF879
:100A6000011088424DD108F1170083B205F117003B
:100A700082B24146284601F005FA00263FE00027F1
:100A800038E00D98A0B904EB840000EB4410CD4988
:100A900001EB4000801C805D80213941084018B185
:100AA000484601F0D8F923E0504601F0D4F91FE0A0
:100AB000C548A0F8009004EB840000EB4410C14945
:100AC00001EB4000801C805D80213941084018B155
:100AD0004146284601F00AFA681C85B20098281A97
:100AE000182805D1009D08F101001FFA80F803E0E5
:100AF000781CC7B2082FC4DB00BF701CC6B2482EDA
:100B0000BDDB00BF601C84B20198844285DBAF4826
:100B10004088401E83B2AD480088401E82B200214A
:100B2000084601F0AFF9BDE8FC9F2DE9FC5F0546E2
:100B3000884691469A46DDF830B000950420019031
:100B400000245FE004EB8410A14911F810009BF829
:100B50000010884253D104EB84109D4901EB400002
:100B600040789BF80110884249D108F11F0083B2F8
:100B700005F11F0082B24146284601F083F90026A4
:100B80003BE0002734E00D9890B904EB84109049C5
:100B900001EB4000801C805D80213941084018B184
:100BA000484601F058F921E0504601F054F91DE0A3
:100BB0008548A0F8009004EB8410854901EB4000C3
:100BC000801C805D80213941084018B1414628468B
:100BD00001F08CF9681C85B20098281A202805D1EC
:100BE000009D08F101001FFA80F803E0781CC7B2ED
:100BF000082FC8DB00BF701CC6B2802EC1DB00BF4F
:100C0000601C84B2019884429CDB70484088401E7E
:100C100083B26E480088401E82B20021084601F06F
:100C200031F9BDE8FC9F2DE9FF4F83B006468846A9
:100C30009146DDE91147109DB2464FF0000B71E07F
:100C4000BBF1000F40D104EBD471604A1288A2EBD3
:100C50006101B14204DB5D494988091B414502DA63
:100C600007B0BDE8F08F2878802802DD4FF0010B37
:100C700058E028780D2806D108EB04001FFA80F808
:100C800056466D1C1EE0102C0DDD102128788DE8D5
:100C900083004A4641463046069BFFF71BFD06F19E
:100CA000080086B20EE028788DE891004A46414659
:100CB0003046069BFFF70EFD204604EBD07106EB95
:100CC00061018EB26D1C2DE040480088001BB042CF
:100CD00004DB3E484088001B404500DAC0E74FF087
:100CE000000B202C08D1CDE900574A46414630463A
:100CF000069BFFF71AFF12E0182C08D1CDE9005728
:100D00004A4641463046069BFFF77AFE07E0CDE9AA
:100D100000574A4641463046069BFFF7F3FDAD1C9F
:100D2000301986B2287800288AD100BF98E72DE9CB
:100D3000FE4F0E4617469846DDE90D9A0C9C20465C
:100D400003F09EFA85B221490988A1EBC50000EBAA
:100D5000D071C1F34F0B43463A46314658468DE8B1
:100D60001006FFF760FFBDE8FE8F2DE9F04706464D
:100D70000F46154607F1270083B206F1270082B21D
:100D80003946304601F07EF800240AE015F8149048
:100D900005EB440090F8018049EA082001F05BF877
:100DA000641CB4F5C86FF1DB08484088401E83B26C
:100DB00006480088401E82B20021084601F062F811
:100DC000BDE8F087E25F00081E0000206C000020F4
:100DD000E861000800F097F8482003F0FBF901F003
:100DE0002EF913E000F0EBF900F08EF900F032FA82
:100DF00000F09EFA00F0C5FB00F086FC00F02DFC30
:100E000000F0D5FD00F004FE00F030FEEAE7704788
:100E100000BFFEE700BFFEE700BFFEE700BFFEE742
:100E200070477047704770470CB5002001900090E4
:100E30006C48006840F480306A49086000BF694827
:100E4000006800F4003000900198401C0190009868
:100E500018B90198B0F5A06FF1D16248006800F4AC
:100E6000003010B10120009001E0002000900098B7
:100E7000012843D15C48006840F010005A490860DE
:100E80000846006820F0030008600846006840F04B
:100E9000020008605348406852494860084640686C
:100EA00048600846406840F48060486008464068F2
:100EB00020F47C1048600846406840F4E810486020
:100EC0000846006840F08070086000BF4548006830
:100ED00000F000700028F9D04248406820F003007C
:100EE000404948600846406840F00200486000BF42
:100EF0003C48406800F00C000828F9D10CBD10B542
:100F0000FFF792FF10BD10B53648006840F00100B1
:100F1000344908600846406834490840314948600F
:100F200008460068324908402E49086008460068B3
:100F300020F4802008600846406820F4FE004860E5
:100F40004FF41F008860FFF7DAFF4FF00060294977
:100F5000086010BD10B5002100200022214B5B6805
:100F600003F00C0121B1042906D0082928D107E09B
:100F7000214B224C236027E01F4B204C236023E0B1
:100F8000184B5B6803F47010164B5B6803F48032F7
:100F9000022303EB904022B9194B4343174C2360C3
:100FA0000DE0104B5B6803F4003323B1144B434353
:100FB000124C236003E0104B4343104C236003E0CA
:100FC0000D4B0E4C236000BF00BF064B5B68C3F3A4
:100FD00003130C4CE15C094B1B68CB40074C2360AE
:100FE00010BD000000100240002002400000FFF889
:100FF000FFFFF6FE08ED00E000127A00000000207E
:1010000000093D00040000203EB504464FF6FF7085
:1010100000F078FF1F200090FE4802881423002172
:101020000846FFF7DFF81F200090FA48438802883F
:101030004088143881B20020FFF7D4F84FF6FF70D3
:10104000F5490880012010211F234FF6FF72CDE9DA
:101050000041029002210020FFF769FE01201021CB
:10106000EEA2CDE900210290EA484088123881B210
:101070001F234FF6FF720020FFF759FE3EBD2DE9FA
:10108000F04106460F4614461D464FF6FF70E249F2
:1010900008803B46224639463046FFF7DAF82B46B1
:1010A000324639463046FFF7D4F848F21040DA4964
:1010B00008806A1E93B291B2721C90B22246FFF76A
:1010C000C8F844F20820D44908802B462246294615
:1010D0003046FFF7BEF848F21040CF490880631E43
:1010E0009AB27B1C99B2631E98B22B46FFF7B1F8F7
:1010F00044F20820C84908802B462246394620463B
:10110000FFF7A7F8BDE8F0810EB54EF67D7000F050
:10111000F9FE1C23A92208214720FFF7B0FF012078
:101120001021C1A21F23CDE9002102904FF61F021A
:101130000A210020FFF7FBFD3A23A92226214720A0
:10114000FFF79DFF01201021BBA24EF67D73CDE974
:1011500000210290002228211046FFF7E8FD5823C5
:10116000A92244214720FFF78AFF01201021B6A2BF
:101170004EF67D73CDE9002102901F22462100200A
:10118000FFF7D5FD7623A92262214720FFF777FFDD
:1011900001201021B0A24EF67D73CDE9002102900E
:1011A0004FF4784264211020FFF7C1FD40F2DC507B
:1011B00003F02AF84FF4FA7003F026F80EBD0EB5CE
:1011C000A9A0FFF721FF01201021ABA21F23CDE929
:1011D00000210290DA0217210020FFF7A8FD01206C
:1011E0001021A1A21F23CDE900210290DA022821BB
:1011F0000020FFF79CFD01201021A1A21F23CDE9B3
:10120000002102904FF4FC6239210020FFF78FFD8E
:10121000012010219DA21F23CDE9002102904FF44F
:10122000FC624A210020FFF782FD0120102199A2D3
:101230001F23CDE9002102901A465B210020FFF711
:1012400076FD40F2DC5002F0DFFF40F2DC5002F0AD
:10125000DBFF0EBD0EB54FF6FF7000906D48438862
:10126000028800210846FEF7BDFF012010218CA254
:101270004FF6E073CDE9002102901F221E211420B9
:10128000FFF7D1FC4FF4487002F0BEFF4FF47840F6
:10129000009060484388028800210846FEF7A2FFBC
:1012A0000120102180A24FF6E073CDE900210290C9
:1012B0001F221E211420FFF7B6FC4FF4487002F0E5
:1012C000A3FF4FF4FC60009052484388028800213D
:1012D0000846FEF787FF0120102175A24FF6E07344
:1012E000CDE9002102901F221E211420FFF79BFC54
:1012F0004FF4487002F088FF1F2000904548438853
:10130000028800210846FEF76DFF012010216AA225
:101310004FF6E073CDE9002102904FF478421E2190
:101320001420FFF780FC4FF4487002F06DFF0EBDF3
:101330002DE9F843002462A0FFF766FE4FF6FF7028
:10134000009034484088143883B23248028814210F
:101350000020FEF747FF00BF4AE05D4830F8140068
:101360002D490880DFF8ACC0BCF8025005EBD57CF5
:101370004FEA6C0CACF1280C04EB840909EBC409AE
:10138000CC440CF11E0C1FFA8CF3DFF888C0BCF8BB
:10139000006006EBD67C4FEA6C0CACF1280C0CEB31
:1013A000041C0CF11E0C1FFA8CF2DFF868C0BCF8AC
:1013B000027007EBD77C4FEA6C0CACF1280C04EB05
:1013C000840909EBC409CC441FFA8CF1DFF844C04E
:1013D000BCF8008008EBD87C4FEA6C0CACF1280C10
:1013E0000CEB041C1FFA8CF0FEF78BFF601CC4B2E0
:1013F000052CB2DB40F2DC5002F006FF4FF6FF7026
:10140000009004484088143883B2024802881421AE
:1014100000205FE06C0000201E0000207777772E10
:101420006C63642E636F6D00CDBCD0CECFD4CABECA
:10143000B2E2CAD400000000B4BFC9ABCCEEB3E442
:10144000B2E2CAD400000000D6D0CEC4CFD4CABE07
:10145000B2E2CAD400000000CDBCC6ACCFD4CABE34
:10146000B2E2CAD400000000D7DBBACFB2E2CAD4DD
:10147000B3CCD0F200000000B5E7D7D300000000E5
:10148000322E302220535437373839003234305816
:1014900033323000323031392D31322D32310000CB
:1014A000424C2054657374005245442000000000F3
:1014B000475245454E200000424C55452000000053
:1014C000475549BED8D0CECCEEB3E4B2E2CAD40080
:1014D00014000020FEF786FE00244AE0FE4830F8A3
:1014E0001400FE490880DFF8F8C3BCF8025005EB91
:1014F000D57C4FEA6C0CACF1280C04EB840909EBA9
:10150000C409CC440CF11E0C1FFA8CF3DFF8D0C3D5
:10151000BCF8007007EBD77C4FEA6C0CACF1280CE0
:101520000CEB041C0CF11E0C1FFA8CF2DFF8B0C39C
:10153000BCF8028008EBD87C4FEA6C0CACF1280CAC
:1015400004EB840909EBC409CC441FFA8CF1DFF8E1
:1015500090C3BCF8006006EBD67C4FEA6C0CACF193
:10156000280C0CEB041C1FFA8CF0FEF7EAFE601C42
:10157000C4B2052CB2DB40F2DC5002F045FEBDE8FF
:10158000F883F8B50024D7A0FFF73EFD4FF6FF70B3
:101590000090D3484088143883B2D148028814217F
:1015A0000020FEF71FFE00BF1DE00020CC4B009086
:1015B0005D8805EBD5735B10193B04EB840707EBE3
:1015C000C407D919C64B1E8806EBD6735B10283B9F
:1015D000C4EB0417D819C04B33F814200F23FEF7BF
:1015E00001FF601CC4B2052CDFDB40F2DC5002F0CE
:1015F0000BFE4FF6FF700090B9484088143883B254
:10160000B748028814210020FEF7ECFD00241DE0FD
:101610000120B34B00905D8805EBD5735B10193B3F
:1016200004EB840707EBC407D919AD4B1E8806EB02
:10163000D6735B10283BC4EB0417D819A64B33F8BC
:1016400014200F23FEF7CEFE601CC4B2052CDFDB96
:1016500040F2DC5002F0D8FDF8BD0EB5A5A0FFF7B2
:10166000D3FC00200C21A7A24FF6E073CDE90021A6
:1016700002901F2216210A20FFF7D5FA01200C2123
:10168000A6A24FF6E073CDE9002102901F2222218D
:101690000A20FFF7C8FA00200C21A6A24FF6E0733B
:1016A000CDE9002102901F222F210A20FFF7BBFA6B
:1016B00000201021A5A24FF6E073CDE90021029091
:1016C0001F223C210A20FFF7AEFA01201021A3A21D
:1016D0004FF6E073CDE9002102901F224C210A2031
:1016E000FFF7A1FA00201021A0A24FF6E073CDE988
:1016F000002102901F225C210A20FFF794FA4FF488
:10170000966002F081FD0EBD2DE9FC5F00249CA0D7
:10171000FFF77AFC4FF6FF7000907148408814384C
:1017200083B26F48028814210020FEF75BFD00BFE2
:1017300060E0694830F814006849088068484588C6
:1017400005EBD57040100C3804EB440101EBC401EB
:10175000084481B26248068806EBD67040100B3808
:10176000C4EB0412104480B2DFF874C1CDE900016B
:10177000BCF8027007EBD77C4FEA6C0CACF1270C7D
:1017800004EB440B0BEBC40BDC441FFA8CF3DFF8C7
:1017900050C1BCF8008008EBD87C4FEA6C0CACF16F
:1017A0001A0CC4EB041BDC441FFA8CF2DFF830C1C6
:1017B000BCF8029009EBD97C4FEA6C0CACF10C0C34
:1017C00004EB440B0BEBC40BDC441FFA8CF1DFF889
:1017D00010C1BCF800A00AEBDA7C4FEA6C0CACF14B
:1017E000280CC4EB041BDC441FFA8CF0FEF747FE08
:1017F000601CC4B2052C9CDB40F2DC5002F004FDFE
:101800004FF6FF70009036484088143883B2344851
:10181000028814210020FEF7E5FC0024BEE02E48DB
:1018200030F814002D4908802D48458805EBD57007
:1018300040100C3804EB440101EBC401084481B2B0
:101840002748068806EBD67040100B38C4EB04120C
:10185000104480B2DFF888C0CDE90001BCF8027006
:1018600007EBD77C4FEA6C0CACF1270C04EB440B74
:101870000BEBC40BDC441FFA8CF3DFF864C0BCF83C
:10188000008008EBD87C4FEA6C0CACF11A0CC4EB6E
:10189000041BDC441FFA8CF2DFF844C0BCF8029051
:1018A00009EBD97C4FEA6C0CACF10C0C04EB440B4B
:1018B0000BEBC40BDC441FFA8CF1DFF824C0BCF83E
:1018C00000A00AEBDA7C4FEA6C0CACF1280CC4EBFC
:1018D000041BDC445CE00000140000201E0000201B
:1018E0006C000020475549BBADD4B2CCEEB3E4B296
:1018F000E2CAD400D3A2CEC4CFD4CABEB2E2CAD404
:1019000000000000365831323A61626364656667F0
:1019100068303132333435363700000036583132D2
:101920003A414243444546474830313233343536F4
:1019300037000000365831323A7E21402324255E9C
:10194000262A28295F2B7B7D3A0000003858313643
:101950003A6162636465303132333400385831366D
:101960003A414243444530313233340038583136FD
:101970003A7E21402324255E262A282900000000E3
:1019800047554920547269CCEEB3E4B2E2CAD400A0
:101990001FFA8CF0FEF794FD601CC4B2052CFFF614
:1019A0003EAF40F2DC5002F02FFCBDE8FC9F0EB5CC
:1019B000AFF26C50FFF728FB00201021BBA24FF6BE
:1019C000E073CDE9002102901F2219210A20FFF7C0
:1019D0002AF901201821B9A24FF6E073CDE90021C0
:1019E00002901F222D210A20FFF71DF9012020213E
:1019F000B6A24FF6E073CDE9002102901F224621E6
:101A00000A20FFF710F94FF4966002F0FDFB0EBDBF
:101A10000EB5AFF2BC50FFF7F7FAB04A1E21142002
:101A2000FFF7A3F901201021ADA24FF6E073CDE935
:101A3000002102901F224B212020FFF7F4F8A74A33
:101A40001E214620FFF791F901201021A4A24FF694
:101A5000E073CDE9002102901F224B215220FFF7B5
:101A6000E2F84FF4966002F0CFFB0EBD10B588B0DF
:101A700000249C4B0FCBCDE90623CDE9040100BF28
:101A800023E0204600F09BFA97A0FFF7BDFA012162
:101A9000102204A850F824004FF6E073CDE901218C
:101AA00000901F221E211420FFF7BDF88B4A32211F
:101AB0001E20FFF75AF94FF47A7002F0A5FB4FF49D
:101AC0007A7002F0A1FB601CC4B2042CD9DB0020A8
:101AD00000F075FA08B010BD08B5002500260027F3
:101AE00001F0B9FB00F024F901F0AEFD82A0FFF790
:101AF0008BFA0120884900900988183988B287A399
:101B000010220021FEF770FE4FF4784084490880CF
:101B10008149009009881E398AB27F490988343981
:101B200088B212230221FEF75DFBBEE000F029F926
:101B300004467C484168002088477A48007D00F0D0
:101B40008000002879D07748008A73490988884244
:101B500076DA7448408A70494988884270DA714858
:101B6000018A6D4800881838814222DD6D48408A1C
:101B700010281EDA60A0FFF747FA0120664900909E
:101B80000988183988B265A310220021FEF72CFEBF
:101B90006348078000886049009009881E398AB22E
:101BA0005D490988343988B212230221FEF71AFBF5
:101BB00046E05C48018A584800883C38814234DD60
:101BC0005848018A544800881E3881422DDA554809
:101BD000408A142829DA052096FBF0F100FB1160F9
:101BE000514931F810804C49CDF8008009881E39E0
:101BF0008AB249490988343988B212230221FEF792
:101C0000F1FA3046711C8EB2052190FBF1F201FB16
:101C10001200454931F810004149088008460788FC
:101C20000A2002F0F1FA0BE007E03E4A518A108ADE
:101C30003B4A128800F0D9FC02E00A2002F0E4FAE4
:101C4000012C25D14FF6FF7000F05CF900F099FEF1
:101C500000F061FD28A0FFF7D7F901202E49009080
:101C60000988183988B22DA310220021FEF7BCFD87
:101C70002B48078000882849009009881E398AB2BD
:101C800025490988343988B212230221FEF7AAFABD
:101C9000681C85B21E2D08D100252448006808B9AB
:101CA000012000E00020214908603FE7313658312B
:101CB000363AB5E7D7D3BBB6D3AD0000323458328D
:101CC000343AD6D0CEC4B2E2CAD40000333258334C
:101CD000323AD7D6CCE5B2E2CAD40000F0630008AD
:101CE0005151000070700008C6C1C4BBD0FDD7AA16
:101CF000B2E2CAD400000000B2E2CAD4393A546F4A
:101D000075636828B0B44B455930D0A3D7BC29209F
:101D100020202020200000006C000020525354009E
:101D20001E0000202400002014000020A0012142F9
:101D300008B50121142002F063F80121284801F0C0
:101D400074FE4FF40040ADF8000048208DF8030009
:101D50006946244801F098FD2020ADF80000482095
:101D60008DF803006946204801F08EFD0120ADF892
:101D7000000028208DF8030069461A4801F084FD10
:101D800008BD10B52021184801F011FE58B14FF4DC
:101D90000041144801F00BFE28B10121114801F067
:101DA00006FE012819D10A2002F02EFA20210E4841
:101DB00001F0FDFD08B9012010BD4FF400410948B4
:101DC00001F0F5FD08B90220F6E70121054801F010
:101DD000EEFD012801D10320EEE70020ECE7000032
:101DE00000023000000801400010014010B5044618
:101DF0004FF40060F5490860401008602146F4483F
:101E000001F082FA4FF40060F049091F086010BD2C
:101E100010B504464FF40060EC4908604010091FFB
:101E200008602146EA4801F06FFA4FF40060E74984
:101E3000091F086010BD70B505460C462846FFF71F
:101E4000D5FFE0B2FFF7E4FF70BD10B5E149087AB5
:101E5000FFF7CCFF10BD10B504464FF40060DB491E
:101E600008604010091F08602112D94801F04CFA9F
:101E7000E1B2D74801F048FA4FF40060D349091F96
:101E8000086010BD2DE9F04104460D4616461F4678
:101E9000D049887AFFF7AAFF2012FFF7B9FFE0B216
:101EA000FFF7B6FF3012FFF7B3FFF0B2FFF7B0FF56
:101EB000C849087BFFF79AFF2812FFF7A9FFE8B28D
:101EC000FFF7A6FF3812FFF7A3FFF8B2FFF7A0FF56
:101ED000FFF7BBFFBDE8F08170B504460D462B4609
:101EE000224629462046FFF7CDFF70BD70B5044657
:101EF0000D4629462046FFF7EFFFB7480088FFF759
:101F0000AAFF70BD70B50446B2484088401E83B237
:101F1000B0480088401E82B200210846FFF7B2FF99
:101F20004FF40060A94908604010091F08600025AF
:101F30000FE0002608E02112A54801F0E5F9E1B222
:101F4000A34801F0E1F9761CA2480088B042F2D81B
:101F50006D1CA0484088A842EBD84FF400609B4914
:101F6000091F086070BD08B50121082001F048FF75
:101F70004FF4F050ADF8000003208DF8020010205F
:101F80008DF8030069469148143801F07DFC4FF448
:101F9000F0518E48143801F024FD08BD10B54FF4FF
:101FA00080508A490860142002F02EF94FF48050C6
:101FB0008649091F0860142002F026F910BD10B5EB
:101FC00004462A20834948812B2088812C200881BF
:101FD00034B1012C0FD0022C18D0032C2CD120E0CE
:101FE000F0207C4908804FF4A07048800021362002
:101FF000FFF721FF21E04FF4A07076490880F02020
:10200000488060213620FFF716FF16E0F020714966
:1020100008804FF4A0704880C0213620FFF70BFFE6
:102020000BE04FF4A0706B490880F0204880A0219D
:102030003620FFF700FF00E000BF00BF10BD10B565
:1020400001F086F9FFF78FFFFFF7A8FF3620FFF7B3
:10205000CDFE0020FFF7DCFE3A20FFF7C7FE05208B
:10206000FFF7D6FEB220FFF7C1FE0C20FFF7D0FE2F
:102070000C20FFF7CDFE0020FFF7CAFE3320FFF74C
:10208000C7FE3320FFF7C4FEB720FFF7AFFE3520B1
:10209000FFF7BEFEBB20FFF7A9FE1920FFF7B8FE31
:1020A000C020FFF7A3FE2C20FFF7B2FEC220FFF7EF
:1020B0009DFE0120FFF7ACFEC320FFF797FE122024
:1020C000FFF7A6FEC420FFF791FE2020FFF7A0FE39
:1020D000C620FFF78BFE0F20FFF79AFED020FFF7F8
:1020E00085FEA420FFF794FEA120FFF791FEE020DB
:1020F000FFF77CFED020FFF78BFE0420FFF788FE61
:102100000D20FFF785FE1120FFF782FE1320FFF759
:102110007FFE2B20FFF77CFE3F20FFF779FE542047
:10212000FFF776FE4C20FFF773FE1820FFF770FED6
:102130000D20FFF76DFE0B20FFF76AFE1F20FFF753
:1021400067FE2320FFF764FEE120FFF74FFED0205B
:10215000FFF75EFE0420FFF75BFE0C20FFF758FE42
:102160001120FFF755FE1320FFF752FE2C20FFF73A
:102170004FFE3F20FFF74CFE4420FFF749FE512061
:10218000FFF746FE2F20FFF743FE1F20FFF740FE1C
:102190001F20FFF73DFE2020FFF73AFE2320FFF728
:1021A00037FE2120FFF722FE1120FFF71FFE292016
:1021B000FFF71CFE0020FFF702FF0120074908601F
:1021C0004FF6FF70FFF79EFE10BD0000140C01409B
:1021D000003800406C0000201E000020A481214235
:1021E00010B501F005F910BD70B50446002601F0E8
:1021F00019F92546E11704EB11610912A02202EB3F
:102200004101C8B201F0BCF901F04DF9E11704EB4E
:1022100011610912A4EB0121C8B201F0B1F901F07A
:1022200042F901F0FFF8A12001F0AAF901F03BF911
:10223000002001F0D2F9064601F016F9304670BDD3
:1022400070B504460E4601F0EDF82546E11704EBA3
:1022500011610912A02202EB4101C8B201F090F90C
:1022600001F021F9E11704EB11610912A4EB01213E
:10227000C8B201F085F901F016F9304601F080F995
:1022800001F011F901F0F0F80A2001F0BDFF70BD76
:102290002DE9F04105460E461746002409E0E2000C
:1022A00026FA02F2D1B22A1990B2FFF7C9FF601CD8
:1022B000C4B2BC42F3DBBDE8F0812DE9F041074632
:1022C0000C460026002509E036023919491B491E33
:1022D00088B2FFF789FF0644681CC5B2A542F3DB4C
:1022E0003046BDE8F08110B5FF20FFF77DFF0446C2
:1022F000552C01D1002010BD5521FF20FFF7A0FF74
:10230000FF20FFF771FF0446552C01D10020F2E7B2
:102310000120F0E770B506460C46154608E0304649
:10232000721C96B2FFF760FF04F8010B681E85B2BD
:10233000002DF4D170BD70B505460C46164606E07A
:1023400021782846FFF77CFF681C85B2641C301E8C
:10235000A6F101018EB2F3D170BD0000002100BFD3
:1023600015E000F080021AB10122FE4B1A6002E073
:102370000022FC4B1A604206100E0022F94B0C3B67
:102380001A600122F84BC3F880214A1CD1B20829F7
:10239000E7DB704770B50646002500240020F149B0
:1023A0000C390860F049C1F88C01EE492831086009
:1023B0003046FFF7D3FF062001F042FF0020EA4934
:1023C000C1F88001012001F03BFF0120E5490C39F3
:1023D00008600020E449C1F8800100BF13E04FF617
:1023E000FF7000EA44040020DE490C390860012037
:1023F000DD49C1F88001DB488438006808B1601C01
:1024000084B2681CC5B2102DE9DB24110120D54926
:1024100028310860204670BD2DE9FE438046002724
:10242000002406E04046FFF7B5FF2DF81400601CBD
:1024300084B2052CF6DB002416E0601C85B20FE0A8
:102440003DF814003DF81510884207DD3DF8146092
:102450003DF815002DF814002DF81560681C85B2A4
:10246000052DEDDB601C84B2042CE6DB0027012483
:1024700005E03DF81400384487B2601C84B2042C97
:10248000F7DB032097FBF0F086B23046BDE8FE8311
:102490002DE9F04104460D46B4480078FFF7BCFF33
:1024A0000646B3480078FFF7B7FF074626802F801F
:1024B0000120BDE8F0817FB504460D4602A903A8BE
:1024C000FFF7E6FF064616B9002004B070BD694666
:1024D00001A8FFF7DDFF06460EB90020F5E7BDF8BD
:1024E0000400BDF80C10884206DCBDF80C10BDF8E5
:1024F0000400323081420CDBBDF80C00BDF8041042
:10250000884236DCBDF80410BDF80C003230814240
:102510002FDABDF80000BDF80810884206DCBDF8CF
:102520000810BDF80000323081420CDBBDF8080015
:10253000BDF8001088421CDCBDF80010BDF8080092
:102540003230814215DABDF80C10BDF8042088182D
:1025500000EBD071C1F34F012180BDF80810BDF828
:102560000020881800EBD071C1F34F0129800120B1
:10257000ABE70020A9E7F8B504460D4616467D48AE
:10258000068004F10D018AB2193988B22B4629461A
:10259000FDF75FFE05F10D0083B2193881B22246C6
:1025A0002046FDF756FE6A1C91B2621C90B2FFF7FE
:1025B0009DFC6A1C91B2621E90B2FFF797FC6A1EE6
:1025C00091B2621C90B2FFF791FC6A1E91B2621E3A
:1025D00090B2FFF78BFC002006230090654802882C
:1025E00029462046FDF7FEFEF8BD70B504460D46AF
:1025F00016466048068029462046FFF777FC611C96
:1026000088B22946FFF772FC681C81B22046FFF7AA
:102610006DFC6A1C91B2621C90B2FFF767FC70BD42
:102620002DE9F04104464F4864380068002853D132
:1026300024B15149881EFFF73EFF3CE04E49881EF9
:10264000FFF739FFB8B34C491239B1F9200002F055
:102650002DFA074648491239088A02F03FFA8046A7
:10266000454812388169404602F04CFA0646394620
:1026700002F0BCF8054602F0F9F93F491239088228
:10268000B1F9220002F012FA07463B491239488A92
:1026900002F024FA804638481238C169404602F0F8
:1026A00031FA0646394602F0A1F8054602F0DEF995
:1026B00031491239488230481238007D00F08000DC
:1026C00010BBC0202C49123908750846008A888141
:1026D0000846408AC88117E027481238007D00F07C
:1026E000800040B124481238007D20F0800022494B
:1026F0001239087508E000201F4912398881C88105
:102700004FF6FF70088248821B481238007D00F0A7
:102710008000BDE8F08170B5174912398869174902
:1027200002F0F0F9054602F085F90446042221463C
:102730002820FFF7ADFD10491239C8690F4902F092
:10274000E1F9054602F076F90446042221462C20E0
:10275000FFF79EFD08481238B0F920100222302001
:102760000EE000008C012242000022424C000020BA
:102770004D0000201E0000203600002020BCBE4C72
:10278000FFF786FDFB48B0F9221002223220FFF746
:102790007FFDF84890F824103420FFF751FD0A24FB
:1027A00021463520FFF74CFD70BD70B53520FFF791
:1027B0001BFD04460A2C42D104212820FFF77DFD91
:1027C0000446204602F072F90546EB4902F070F823
:1027D000E849886104212C20FFF76FFD044620465C
:1027E00002F064F90546E44902F062F8E149C86183
:1027F00002213020FFF761FD00B2DE49088402218A
:102800003220FFF75AFD00B2DA4948843420FFF73E
:10281000EBFCD84981F82400084690F8240030B138
:102820009020D6490870D020D549087005E0D02006
:10283000D24908709020D2490870012070BD002054
:10284000FCE72DE9F84F04460D4617461E46DDE924
:102850000CABDDE90A894FF47840CA4908800120B1
:10286000C9A310228C2100902820FDF7BDFF012074
:10287000C6A310228C2100907820FDF7B5FF01201F
:10288000C3A31022A02100902820FDF7ADFF012056
:10289000C0A31022A02100907820FDF7A5FF012001
:1028A000BDA31022B42100902820FDF79DFF012038
:1028B000BAA31022B42100907820FDF795FF0120E3
:1028C000B7A31022C82100902820FDF78DFF01201A
:1028D000B4A31022C82100907820FDF785FF0120C5
:1028E000B1A31022DC2100902820FDF77DFF1020ED
:1028F000042322468C2100904020FDF7AFFF1020DA
:1029000004232A468C2100909020FDF7A7FF102079
:1029100004233A46A02100904020FDF79FFF10209D
:1029200004233246A02100909020FDF797FF10204D
:1029300004234246B42100904020FDF78FFF102071
:1029400004234A46B42100909020FDF787FF102011
:1029500004235246C82100904020FDF77FFF10203D
:1029600004235A46C82100909020FDF777FF1020DD
:1029700003230090DC2160200E9AFDF76FFFBDE875
:10298000F88F00B595B0002010900A9010901F208D
:102990007C4908804FF6FF7085490880FFF7B2FA3E
:1029A0004FF47840774908804FF6FF70FFF7AAFA96
:1029B00000207449088001207EA310222821009065
:1029C0000A20FDF711FF012081A310223821009079
:1029D0000A20FDF709FF012084A31022482100905E
:1029E0000A20FDF701FF012087A310225821009043
:1029F0000A20FDF7F9FE01208AA310226821009029
:102A00000A20FDF7F1FE4FF4784214210846FFF743
:102A1000B2FD002057490875886154E25548406866
:102A200009900120099988475248007D00F0C000B4
:102A300040287AD100200A904E48007D20F04000C6
:102A40004C4908750846018A11AA109822F82010EE
:102A50004848418A109802EB800041801098401C41
:102A6000C0B210901098012806D0022815D0032873
:102A700029D0042810D141E04FF6FF7214210846F6
:102A8000FFF779FD6B480088143880B24FF4784224
:102A900014210990FFF76FFDC8E3664800881438D9
:102AA00080B24FF6FF7214210990FFF764FD614870
:102AB0004088143880B24FF47842014609901420BF
:102AC000FFF759FDB2E35B484088143880B24FF6F7
:102AD000FF72014609901420FFF74DFD55484088CC
:102AE000143880B2099053480088143880B24FF4EB
:102AF000784208900999FFF73EFD97E3BDF844003E
:102B0000BDF84810401A0990002801DB099801E03F
:102B1000099840420D90BDF8461011A8C088081AC7
:102B20000990002802DB099802E080E309984042FE
:102B30000C900D9840430D900C9840430C90DDE9AB
:102B40000C100844059001F066FCCDE9060101F087
:102B500002FCCDE9080101F031FC80B20F90BDF814
:102B60004C00BDF85010401A0990002864DB099809
:102B700064E061E02400002020BCBE4C4C0000203A
:102B80004D0000201E00002078313A0079313A00D3
:102B900078323A0079323A0078333A0079333A00A1
:102BA00078343A0079343A006661632069733A00F8
:102BB00020000020506C656173652075736520747A
:102BC0006865207374796C757320636C69636B003E
:102BD0007468652063726F7373206F6E207468650C
:102BE0002073637265656E2E0000000054686520D6
:102BF00063726F73732077696C6C20616C77617995
:102C000073206D6F76650000756E74696C20746852
:102C1000652073637265656E2061646A7573746D97
:102C2000656E7400697320636F6D706C65746564A4
:102C30002E0000006C000020099840420D9011A861
:102C40004189C089081A0990002801DB099801E030
:102C5000099840420C900D9840430D900C984043C9
:102C60000C90DDE90C100844059001F0D4FBCDE98F
:102C7000060101F070FBCDE9080101F09FFB80B275
:102C80000E900E9801F02AFF09900F9801F026FF90
:102C90000890099901F00CFE0B900B9801F07AFD59
:102CA0004FF06632FE4BCDE9080101F0C7FB0DD3B2
:102CB0000B9801F06FFDFB4AFB4BCDE9080101F0D9
:102CC0004DFC03D30F9808B10E98E8BB002010907C
:102CD000F6484088143880B20990F44800881438C7
:102CE00080B24FF6FF7208900999FFF744FC4FF449
:102CF000784214210846FFF73EFCED490B9801F09D
:102D000001FF089001F0B2FE80B211A90990C989B3
:102D1000BDF8502011AB5B89CDE90132CDE903103C
:102D2000BDF84C00009011A8C0880890BDF848007C
:102D30000790BDF846000690BDF84400059006A92E
:102D40000EC9FFF77EFD81E2FFE7BDF84400BDF844
:102D50004C10401A0990002801DB099801E00998FD
:102D600040420D90BDF8461011A84089081A0990FC
:102D7000002801DB099801E0099840420C900D9869
:102D800040430D900C9840430C90DDE90C10084432
:102D9000059001F040FBCDE9060101F0DCFACDE938
:102DA000080101F00BFB80B20F90BDF84800BDF8A0
:102DB0005010401A0990002801DB099801E0099899
:102DC00040420D9011A8C188C089081A09900028B6
:102DD00001DB099801E0099840420C900D984043AE
:102DE0000D900C9840430C90DDE90C1008440590C0
:102DF00001F011FBCDE9060101F0ADFACDE90801C2
:102E000001F0DCFA80B20E900E9801F067FE099096
:102E10000F9801F063FE0890099901F049FD0B90AD
:102E20000B9801F0B7FC4FF066329D4BCDE90801DD
:102E300001F004FB09D30B9801F0ACFC994A9A4BC2
:102E4000CDE9080101F08AFB3ED20020109097489E
:102E50004088143880B2099094480088143880B2B1
:102E60004FF6FF7208900999FFF785FB4FF47842FF
:102E700014210846FFF77FFB8D490B9801F042FEB5
:102E8000089001F0F3FD80B20146099011A8C089B5
:102E9000BDF8502011AB5B89CDE90132CDE90301CA
:102EA000BDF84C00009011A8C0880890BDF84800FB
:102EB0000790BDF846000690BDF84400059006A9AD
:102EC0000EC9FFF7BEFCC1E1BDF84800BDF84C10CB
:102ED000401A0990002801DB099801E00998404256
:102EE0000D9011A8C1884089081A0990002801DBBB
:102EF000099801E0099840420C900D9840430D90CC
:102F00000C9840430C90DDE90C100844059001F04A
:102F100082FACDE9060101F01EFACDE9080101F0BF
:102F20004DFA80B20F90BDF84400BDF85010401A21
:102F30000990002801DB099801E0099840420D90B2
:102F4000BDF8461011A8C089081A0990002801DBB5
:102F5000099801E0099840420C900D9840430D906B
:102F60000C9840430C90DDE90C100844059001F0EA
:102F700052FACDE9060101F0EEF9CDE9080101F0C0
:102F80001DFA80B20E900E9801F0A8FD09900F98DE
:102F900001F0A4FD0890099901F08AFC0B900B98B0
:102FA00001F0F8FB4FF066323D4BCDE9080101F02E
:102FB00045FA09D30B9801F0EDFB3A4A3A4BCDE9BB
:102FC000080101F0CBFA3ED200201090374840882B
:102FD000143880B2099035480088143880B24FF612
:102FE000FF7208900999FFF7C6FA4FF4784214214E
:102FF0000846FFF7C0FA2E490B9801F083FD0890B0
:1030000001F034FD80B20246099011A8C189BDF8D3
:10301000500011AB5B89CDE90130CDE90312BDF859
:103020004C00009011A8C0880890BDF84800079097
:10303000BDF846000690BDF84400059006A90EC9EB
:10304000FFF7FFFB02E1BDF84800BDF84410401A4D
:10305000079001F02BFD099014480088283807904C
:1030600001F024FD0890099901F022FC11498861C2
:10307000BDF84800BDF844100844049001F016FD66
:1030800005900C48806901460490059801F03AFDCE
:10309000079006480088059001F020FD06900BE09F
:1030A0006666EE3FCDCCCCCCCCCCF03F6C000020A3
:1030B0000000C84224000020079901F0EFFD4FF006
:1030C0008041089001F0F4FB099001F0B3FC00B2DC
:1030D0007C49088411A84089BDF84610401A079021
:1030E00001F0E4FC0990784840882838079001F006
:1030F000DDFC0890099901F0DBFB7249C86111A859
:103100004089BDF846100844049001F0CFFC0590BA
:103110006C48C06901460490059801F0F3FC0790E3
:1031200069484088059001F0D9FC0690079901F0A4
:10313000B5FD4FF08041089001F0BAFB099001F015
:1031400079FC00B25F49488408468069079001F025
:1031500071FC0890002801DB089801E008984042C3
:1031600002280DDC5748C069079001F063FC099004
:10317000002801DB099801E00998404202283ADD65
:103180000020109050484088143880B209904E4872
:103190000088143880B24FF6FF7208900999FFF743
:1031A000EAF94FF4784214210846FFF7E4F90120C8
:1031B00046A310221A2100902820FDF715FB414854
:1031C00090F8240008B9012000E000203D4981F872
:1031D0002400084690F8240030B19020404908703F
:1031E000D0204049087005E0D0203D49087090206B
:1031F0003C4908702AE01F203B4908804FF6FF70C9
:10320000FEF780FE012039A310226E2100902320BA
:10321000FDF7EAFA4FF47A7000F0F6FFFFF77BFA59
:103220004FF6FF70FEF76EFE15B000BD00BF0A201E
:1032300000F0EAFF0A98401C80B20A900A98B0F5A4
:103240007A7F02DDFFF7B1FA02E000BFFFF7E6BBCD
:1032500000BF00BFE8E708B50121112000F0D0FD54
:1032600042F20900ADF8000010208DF803000320A1
:103270008DF802006946234800F006FB40F2044046
:10328000ADF8000048208DF8030069461D4800F0A5
:10329000FBFA0C491231881EFFF7FAF8FEF7A0FF7F
:1032A000FFF783FA08B1002008BD4FF6FF70FEF764
:1032B00029FEFFF766FBFFF72EFAFFF776FA0120EB
:1032C000F2E70000240000206C0000205450204E43
:1032D00065656420726561646A757374210000001D
:1032E0004C0000204D0000201E000020546F75632C
:1032F000682053637265656E2041646A757374203B
:103300004F4B210000100140024600BF108900F021
:1033100002000028FAD0918100BF108900F001005E
:103320000028FAD09089C0B2704702884FF6C77360
:103330001A400280012902D10288028003E002883B
:1033400042F020020280028842F040020280704770
:1033500000B587B00121092000F052FD4FF4204054
:10336000ADF8040003208DF8060018208DF8070042
:1033700001A91D4800F088FA4FF48040ADF8040020
:1033800048208DF8070003208DF8060001A9164893
:1033900000F07AFA0121880300F03FFD0020ADF82B
:1033A00008004FF48270ADF80A000020ADF80C0060
:1033B0000220ADF80E000020ADF810004FF40070B0
:1033C000ADF812000020ADF81400ADF8160007208B
:1033D000ADF8180002A9054800F09CFD0121034842
:1033E00000F03DFE07B000BD000C01400038004079
:1033F00008B50121102000F003FD4FF4C050ADF8D6
:10340000000010208DF8030003208DF802006946AB
:103410008A4800F039FA0120894908608949C1F8D1
:10342000AC0108BD10B58548406820F47040834960
:1034300048600846406840F4405048600120804998
:10344000091F08607F49C1F8B001042000F0F8FEB0
:1034500000207B49091F0860042000F0F1FE0020D5
:103460007849C1F8B00110BD10B57448406820F427
:103470007040724948600846406840F440504860D7
:1034800000206F4908606F49C1F8AC01042000F0CA
:10349000D7FE01206A4908606A49C1F8AC010420DE
:1034A00000F0CEFE10BD10B500246448406820F442
:1034B0007040624948600846406840F400404860F7
:1034C00001205F49091F086000F0BAFE01205D4934
:1034D000C1F8B00100F0B4FE07E0601CC4B2FA2CE1
:1034E00003DDFFF7C1FF012010BD55488438006897
:1034F0000028F2D15249086000BFF5E710B500205E
:103500004F4908604D48406820F470404B4948607E
:103510000846406840F44050486000204949C1F8DE
:10352000AC01022000F08CFE012045490860022019
:1035300000F086FE00204349C1F8B00110BD10B56F
:1035400000203F4908603D48406820F470403B49F6
:1035500048600846406840F44050486001203949BE
:10356000C1F8AC01022000F06BFE01203449086074
:10357000022000F065FE00203249C1F8B00110BD04
:1035800070B504462D48406820F470402B494860CF
:103590000846406840F440504860002028490860D0
:1035A000002517E0E0092649091F08606006040E9F
:1035B000022000F045FE01202249C1F8B00102209E
:1035C00000F03EFE00201E490860022000F038FE98
:1035D000681CC5B2082DE5DB70BD70B5054600243A
:1035E0001648406820F47040144948600846406816
:1035F00040F400404860002616E0002010490860B2
:10360000022000F01DFE01200E49C1F8B001600645
:10361000040E0B488438006808B1601CC4B2012055
:1036200000F00EFE701CC6B2082EE6DB15B9FFF7DF
:1036300086FF01E0FFF762FF204670BD00100140E9
:10364000B00122420000224208B50121042000F00E
:10365000D7FB4FF48070ADF8000010208DF8030008
:1036600003208DF8020069460E4800F00DF94FF472
:1036700080710C4800F0B5F90121202000F0C0FB5A
:103680000420ADF8000010208DF8030003208DF811
:1036900002006946044800F0F7F80421024800F0EF
:1036A000A0F908BD00080140001401400948804706
:1036B00009480047FEE7FEE7FEE7FEE7FEE7FEE714
:1036C000FEE7FEE7FEE7FEE704480549054A064B2C
:1036D00070470000070F000831010008E0000020DB
:1036E000E0060020E0020020E00200203149014312
:1036F000314A1160704770B5002100230F22C47851
:1037000004B32D4C246804F4E064C4F5E064210A99
:10371000C1F10403CA40447804FA03F184781440E8
:1037200021430901254C0678A155047804F01F05B2
:103730000124AC4005786D11AD0005F1E025C5F818
:10374000004109E0047804F01F050124AC401C4D41
:103750000678761145F8264070BD1A4A0A400243A1
:10376000154B1B1F1A60704739B1134A121D12689E
:103770000243114B1B1D1A6006E00F4A121D12680E
:1037800082430D4B1B1D1A607047042808D14FF06F
:10379000E021096941F004014FF0E022116107E0E6
:1037A0004FF0E021096921F004014FF0E02211619E
:1037B000704700000000FA050CED00E000E400E0B6
:1037C00080E100E080FFFF1F10B50446CC48844232
:1037D00008D10121042000F02DFB0021042000F07D
:1037E00029FB46E0C748844208D10121082000F0A7
:1037F00021FB0021082000F01DFB3AE0C248844272
:1038000008D10121102000F015FB0021102000F04C
:1038100011FB2EE0BD48844208D10121202000F098
:1038200009FB0021202000F005FB22E0B84884427B
:1038300008D10121402000F0FDFA0021402000F0D5
:10384000F9FA16E0B348844208D10121802000F043
:10385000F1FA0021802000F0EDFA0AE0AE4884423F
:1038600007D10121801500F0E5FA0021A01500F034
:10387000E1FA10BD10B50121084600F0DBFA002185
:10388000012000F0D7FA10BD2DE9F04102460025D5
:103890000026002000230024002791F803C00CF02C
:1038A0000F0591F803C00CF0100CBCF1000F03D011
:1038B00091F802C04CEA050591F800C0BCF1000F78
:1038C00031D0146800202BE04FF0010C0CFA00F30B
:1038D000B1F800C00CEA03069E4220D183004FF0ED
:1038E0000F0C0CFA03F7BC4305FA03FC4CEA040482
:1038F00091F803C0BCF1280F06D14FF0010C0CFA6F
:1039000000FCC2F814C00AE091F803C0BCF1480FF3
:1039100005D14FF0010C0CFA00FCC2F810C0401C9D
:103920000828D1D31460B1F800C0BCF1FF0F34DD1A
:10393000546800202EE000F1080C4FF0010808FA4E
:103940000CF3B1F800C00CEA03069E4221D18300BB
:103950004FF00F0C0CFA03F7BC4305FA03FC4CEADA
:10396000040491F803C0BCF1280F05D100F1080C44
:1039700008FA0CF8C2F8148091F803C0BCF1480FA3
:1039800007D100F1080C4FF0010808FA0CF8C2F852
:103990001080401C0828CED35460BDE8F0814FF65B
:1039A000FF710180022181700421C17070470246BD
:1039B000002093680B400BB1012000E0002070470D
:1039C0000146886880B2704702460020D3680B40E9
:1039D0000BB1012000E0002070470146C86880B2AA
:1039E000704701617047416170470AB1016100E0B1
:1039F00041617047C16070474FF480320A43826171
:103A00008161826182698269704702460020434B6E
:103A100018684FF68073184040EA021008433F4B85
:103A2000186070473E49C8617047F0B50A460023E8
:103A300000240021002500F00046B6F1004F02D11D
:103A4000364EF16901E0354E7168C0F3034583B22B
:103A500000F44016B6F5401F08D121F070612F4EDA
:103A6000766826F070662D4F7E6012E000F48016B6
:103A7000B6F5801F06D1032606FA05F4A14341F0EE
:103A8000706106E0460D360103FA06F6B14341F0D7
:103A9000706122B1460D360103FA06F6314300F09B
:103AA0000046B6F1004F02D11C4EF16101E01B4E01
:103AB0007160F0BD30B500228B071C0F0F2303FA95
:103AC00004F2164B08338C1053F824309343134CF4
:103AD00008348D1044F8253023468C1053F82430D8
:103AE0008C07240F00FA04F423430C4C08348D1087
:103AF00044F8253030BD0A49DC31086070470000C9
:103B000000080140000C0140001001400014014079
:103B100000180140001C014000200140000001404D
:103B200000002042DF48006840F00100DD490860E5
:103B300008464068DC490840DA49486008460068A1
:103B4000DA490840D74908600846006820F4802018
:103B500008600846406820F4FE0048604FF41F00EB
:103B600088607047CF49096821F48031CD4A1160DF
:103B70001146096821F480211160B0F5803F03D01F
:103B8000B0F5802F0ED106E0C649096841F48031B6
:103B9000C44A116007E0C349096841F4A021C14A41
:103BA000116000E000BF00BF704710B50146002261
:103BB000002300204A11012A02D1BA4C236806E0F2
:103BC000022A02D1B74C236A01E0B64C636A01F0C5
:103BD0001F02012494401C400CB1012000E0002091
:103BE00010BD38B5002000900024002500BF312012
:103BF000FFF7DBFF05460098401C00900098B0F5E9
:103C0000A06F01D0002DF2D03120FFF7CEFF08B118
:103C1000012400E00024204638BD01460020A14ACE
:103C2000106820F0F80040EAC10010607047A04919
:103C300008607047024600209A4B586820F47C10B8
:103C400042EA01031843974B586070479849086649
:103C5000704701460020934A506820F00300084353
:103C6000506070478F48406800F00C007047014674
:103C700000208C4A506820F0F000084350607047E4
:103C800001460020874A506820F4E06008435060F5
:103C9000704701460020834A506820F4605040EA93
:103CA000C1005060704729B17E4A527A02437D4B71
:103CB0005A7204E07B4A527A82437A4B5A727047B6
:103CC0007B49D8310860704701460020754A50682A
:103CD00020F440400843506070470021714A203270
:103CE0001170704A82F82010012802D004280AD1ED
:103CF00004E001216B4A2032117005E00521694A78
:103D00002032117000E000BF00BF704769490860B1
:103D100070476449096A0143624A11627047654904
:103D200044390860704730B5002100220024002388
:103D30005C4D6D6805F00C0121B1042905D00829FE
:103D400023D105E05C4D056022E05B4D05601FE07E
:103D5000544D6D6805F47012524D6D6805F4803451
:103D6000022505EB92421CB9544D554305600BE00A
:103D70004C4D6D6805F400351DB1504D554305603F
:103D800002E04D4D5543056002E04B4D056000BF1C
:103D900000BF444D6D6805F0F0010909484D6B5CAA
:103DA0000568DD4045603F4D6D6805F4E061090A36
:103DB000434D6B5C4568DD4085603A4D6D6805F4A8
:103DC0006051C90A3E4D6B5C4568DD40C560354DAC
:103DD0006D6805F44041890B3A4D6B5CC568B5FBD5
:103DE000F3F5056130BD29B12E4A526902432D4BCE
:103DF0005A6104E02B4A526982432A4B5A61704748
:103E000029B1284A92690243264B9A6104E0254A67
:103E100092698243234B9A61704729B1214AD26942
:103E20000243204BDA6104E01E4AD26982431D4BF3
:103E3000DA61704729B11B4AD2680243194BDA6034
:103E400004E0184AD2688243164BDA60704729B101
:103E5000144A12690243134B1A6104E0114A1269B1
:103E60008243104B1A61704712494039086070470D
:103E70000F49C86470470B49C87170470948406AC8
:103E800040F0807007494862704701460020054AAB
:103E900092680A400AB1012000E000207047014901
:103EA00088727047001002400000FFF8FFFFF6FE26
:103EB000000042428004424200127A0000093D00A4
:103EC000540000206400002010B50446BE4884421F
:103ED00008D101218014FFF7ADFF0021A014FFF7E6
:103EE000A9FF16E0B948844208D101210014FFF768
:103EF000AEFF00212014FFF7AAFF0AE0B448844275
:103F000007D10121C013FFF7A2FF0021E013FFF743
:103F10009EFF10BD10B50022028802F441520B88AA
:103F20004C8823438C882343CC8823430C89234328
:103F30004C8923438C892343CC8923431A43028031
:103F4000838B4FF2FF74234083830B8A038210BD5F
:103F50002DE9F04F85B005460C464FF000090227C9
:103F60004FF000084FF0010B0026B246A88B4FF22D
:103F700040010840A88302202884B5F81C90A0685E
:103F8000022801D100BF38E0A08810B94FF0010B22
:103F900001E04FF0020B8D48854200D100E000BFE8
:103FA0006846FFF7C0FEDDF800A0E088B0F5007FAE
:103FB0000AD14FEA1A2000EB80004000A168B0FB54
:103FC000F1F0401D86B20BE04FEA4B10BAFBF0F067
:103FD00000EB80004000A168B0FBF1F0401D86B20C
:103FE0000A20B6FBF0F606F00108A6EB0800C0F3C5
:103FF0004F074FF6FF7000EA0828022F01DBFF2F62
:1040000002DD02274FF00008E08840EA080038434C
:104010002884A088A189084361880843218808432F
:1040200040F4006040EA0909A5F81C9005B0BDE81D
:10403000F08F0021018041808180C1800181418118
:104040008181C18107210182704700210180418067
:104050008180C1800221816000218181704721B16E
:10406000028842F04002028004E002884FF6BF73EB
:104070001A400280704721B1828B42F480628283B1
:1040800004E0828B4FF6FF331A408283704730B5CD
:10409000002400230C110125A540ABB21AB185887C
:1040A0001D43858002E085889D43858030BD1AB11F
:1040B00083880B43838002E083888B43838070472F
:1040C000818170470146888970474FF6FF629142AF
:1040D00004D0028842F48072028004E002884FF625
:1040E000FF631A400280704721B1828842F00402C7
:1040F000828004E082884FF6FB731A40828070470A
:1041000002884FF2FF731A40028002880A4302803D
:104110007047018841F480510180704721B10288C5
:1041200042F40052028004E002884DF6FF731A4008
:104130000280704702460020012901D0108B00E068
:10414000908A70470146088A7047B1F5804F04D1C4
:10415000028842F48042028004E002884BF6FF733A
:104160001A40028070470246002013890B400BB1B1
:10417000012000E000207047CA4302817047F0B57B
:104180000246002000240023002501F00F0701262D
:10419000BE40B4B20B1101269E40B3B2968806EA27
:1041A00003051689264016B10DB1012000E000205C
:1041B000F0BD10B5002201F00F040123A3409AB214
:1041C000D343038110BD000000300140003800409F
:1041D000003C004010B504466FF00400FFF7D5FA2C
:1041E000E11704EB5171C1F3C701234A1170104666
:1041F000007800EB4001C1EBC0104FF6FF7101EAFF
:10420000C0001E49088010BD01461C4A12884A435E
:104210004FF0E0235A6100229A6101221A6100BF27
:104220004FF0E022106900F001021AB100F4803270
:10423000002AF5D000224FF0E0231A619A617047FE
:1042400001460D4A12784A434FF0E0235A6100229A
:104250009A6101221A6100BF4FF0E022106900F05C
:1042600001021AB100F48032002AF5D000224FF08A
:10427000E0231A619A617047680000206A000020FC
:1042800010B5431C02E010F8011B71B18107FAD18F
:104290004FF0013202C88C1A8C4314EAC211F9D0D3
:1042A000C01A0A0603D0C01E10BDC01A10BD0A04F1
:1042B00001D0801E10BD0902FCD0401E10BD704709
:1042C0007047704710B500F009F8006810BD10B5D0
:1042D000044600F003F8046010BD00000048704779
:1042E0007C000020004870477C0000207546FFF7E6
:1042F000F9FFAE4605006946534620F007008546A3
:1043000018B020B5FFF7E0F9BDE820404FF00006F7
:104310004FF000074FF000084FF0000B21F00701AD
:10432000AC46ACE8C009ACE8C009ACE8C009ACE8F0
:10433000C0098D46704710B50446AFF30080204693
:10434000BDE81040FBF73BBF01491820ABBEFEE7BC
:104350002600020070472DE9F04106460F4600F0A6
:1043600033F9041E0D4618BF0120284320F00040F9
:10437000C0F17F6000F1E040C00F0ED0301C18BFCC
:104380000120384320F00040C0F17F6000F1E040A0
:10439000C00F04BF0120FFF79AFF20462946BDE861
:1043A000F081491058BFC1F140415B1058BFC3F1C3
:1043B00040438B42EFF30080704700004FEA1153F7
:1043C000A3F58063D3F11E03A8BFD3F1200C08DB53
:1043D0004FF0004242EAC12252EA505232FA03F050
:1043E000704709420BD4102BC4BF0020704703F55F
:1043F000787CBCF1FF3F05D04FF0FF3070474FF0A5
:104400000000704770B500F055F800BF4992248055
:1044100000207047F0E7B0FA80F310FA03F10AD0F9
:10442000C3F11D0303F580634FEA41504FEA035285
:1044300002EBD12170474FF00000704751EA030CA6
:1044400017D41CF5801F58BFBCF5801F00F10680F3
:10445000994218BF704708BF9042704707D711F5BF
:10446000801F58BF13F5801F19D4994270478942A5
:1044700070471CF5801F08D5BCF5801FF7D58B420F
:1044800018BF704708BF824270474FF4001C1CEBF6
:10449000410F38BF1CEB430F01D28B42704770B500
:1044A00000F008F8922449004FF000514FF080537B
:1044B000FFF777BF0EF1020E2EF0030E5EF8046BCD
:1044C000364205D4012A43EB030515F5001F12D827
:1044D000012841EB010C1CF5001F0CD80ED14FEA4E
:1044E000D17C15F5001F0CEB4C0C0CF1020C08BF35
:1044F0004CEBD37C04E04FF0080C01E04FEAD37C96
:104500000CEB4C0526FA05F606F00706B6F1040C8E
:1045100006D20EEB860CBDE870404CF0010C6047F3
:10452000DFE80CF0090B02024FF000414FF00000F1
:10453000A1F5002170BD19461046012851EB010478
:1045400018BFD4F5001484BF002001F0004170BDF5
:104550000808A0F500114FEA3101704753EA010C39
:1045600017D41CF5801F58BFBCF5801F00F10680D2
:104570008B4218BF704708BF8242704707D713F5B8
:10458000801F58BF11F5801F19D48B4270479B4282
:1045900070471CF5801F08D5BCF5801FF7D59942E0
:1045A00018BF704708BF904270474FF4001C1CEBC7
:1045B000430F38BF1CEB410F01D2994270470FB433
:1045C0000CBC03BCFFF76BBF2DE9F04101F5801C6B
:1045D000BCF5001FC0F2C3804FEA115C21EA0C5108
:1045E0000CF1FD0C41F480115FEA5C0C0CF5C07C11
:1045F00001D3400049413DA4890241EA905187021C
:104600008E0E0A0CA45D04FB04F602FB06F6C6F14E
:104610004046A4FB0662F60D46EA422606FB06F477
:10462000A4FB01235242C3F1404338BF5B1EA6FBEB
:1046300002420024E6FB0324D20B42EA4446A6FBD6
:104640000623A1FB02E2A3FB07E4A4184FF000023B
:1046500052F10002E3FB01426442C2F1404E38BF16
:10466000AEF1010EA6FB04234FF00002E6FB0E3272
:10467000A2FB03464FF00004B61954F10004E2FB1C
:104680000264A1FB06E6A4FB07E816EB08064FF060
:10469000000858F10008E4FB01687642C8F1405870
:1046A00038BFA8F10108A2FB06E4A3FB08E52D1919
:1046B0004FF0000454F10004E2FB0854A1FB05E6AE
:1046C000A7FB04E818EB06084FF0000656F10006B9
:1046D000E1FB048618F1200556F10006A809A8F1AF
:1046E0001B08B10908F03F08B8F10A0F40EA8660DC
:1046F0001CD901EB0C51BDE8F08100BFFCF5EEE8E0
:10470000E2DDD8D3CFCBC7C3C0BDB9B6B4B1AEAC70
:10471000A9A7A5A3A19F9D9B9A9896959392908FE8
:104720008D8C8B898887868584838281A0FB006835
:1047300000FB01F208EB4208B8EB872807D53418D4
:1047400058EB0104D5D5401C51F10001D1E7341AD2
:1047500078EB0104CDD4401E71F10001C9E75FEA96
:104760004C0C5FEA9C5C0DD105D34FF0000001F0CA
:104770000041BDE8F081BDE8F04170B5FFF79AFE59
:104780006DDBFFBEBDE8F0414FF00000004970470F
:104790000000F87F43004FEAD30C4FEA3C0C434043
:1047A0001FBF40070CF1605113F0FE4F70471CF023
:1047B000006F03D100200CF0004170470CF0004363
:1047C00043EA507010B540EACC0000F01CFA00BF7C
:1047D000000000924FEA0001FFF7BABE4FF000411F
:1047E0004FF00000A1F500217047000090EA010F92
:1047F00048BF81F0004100F15882421A3CBF801A44
:1048000089184FEAD0524FF07F4C1CEA410FA2EBBF
:10481000D15318BF9CEA026F00F03B804FF0004C70
:104820004CEA00204CEA012121FA03FC10EB0C0CAD
:104830001ED202F1FF325FEA1C2040EBC25038BFAB
:1048400070471CF07F0F4FEA400C18BFBCF17F4F40
:1048500038BF7047C3F12003994008BF20F0010022
:10486000BCF17F4F38BF7047A0F1C04000F011BAD3
:104870004FEA3C00000A40EBC25028BF1CF0FF0F7B
:104880004FEA400CE6D018BFBCF17F4F38BF7047ED
:10489000EAE79CEA026F05D010EA5C0F08BF00F05F
:1048A0000040704710B500F0AEF900BF64FBBE3E9B
:1048B0004FF47F0C1CEAD0121EBF1CEAD11392EAFF
:1048C0000C0F93EA0C0F00F0858090EA010F48BFAF
:1048D00042F4807240F4000C41F400002CF07F415F
:1048E00020F07F4000B58142A2EB03020FF2081CCA
:1048F000ACEB504EC0F100009EF800E04FEA4E0EC7
:1049000000FB0EFC38BF49004FEA2C1C02F5FA02EE
:104910000CFB0EF34FEACE1E4FEA112C4FEAC121D9
:104920000EEB635E42EB22420EFB0CFC4FEA1C5383
:1049300000FB03114FEA112C4FEA01310EFB0CFC76
:104940004FEADC4C00FB0C11C14228BF09184CEBAC
:1049500003335DF804EB10EB410143EBC250B2F5B9
:104960007C0F38BF704729D512F0F00F1CBF00F143
:10497000C04000F0004070470081828384858687B4
:1049800088898B8C8D8E8F919293959697999A9C0E
:104990009D9FA0A2A3A5A7A8AAACAEB0B2B3B5B77D
:1049A000B9BCBEC0C2C5C7C9CCCED1D4D7D9DCDF53
:1049B000E2E6E9ECF0F3F7FAFE0000004FEA400C03
:1049C0000CF1807CBCF17E4F28BF7047B0F1C04035
:1049D00000F05FB990EA010F0CEAD11348BF42F42E
:1049E0008072624538BF634507D213F47F0F16D03B
:1049F00080EA010000F00040704710B500F003F9B4
:104A0000097EFC3E00F005B880EA010000F000409D
:104A1000704780EA010000F0004000F03AB912F45B
:104A20007F0F04BF0248704780EA010000F031B9EF
:104A30000000C07F41000B0ED3F19E0208D950F454
:104A400000034FEA032323FA02F048BF40427047B5
:104A500010B500F0D8F800BF4992248000207047BC
:104A60006FF0004282EA200070470000C10DD1F1D2
:104A70009E0206DB4FEA002343F0004323FA02F0D4
:104A80007047004207D54FEA4001B1F1FE4F02D214
:104A90004FF00000704710B500F0B5F8499224803F
:104AA000002070476FEA20007047000010F00041BE
:104AB00048BF4042B0FA80F310FA03F2C3F19D03FD
:104AC0000BD051EAC35101EB1220530638BF704797
:104AD00000F1010008BF20F001007047B0FA80F338
:104AE00010FA03F2C3F19D030AD0D90501EB12209D
:104AF000530638BF704700F1010008BF20F00100E5
:104B0000704700004FF47F0C1CEAD0121EBF1CEA55
:104B1000D11392EA0C0F93EA0C0F00F0478090EA51
:104B2000010F48BF42F480724FF0004C4CEA002065
:104B30004CEA012102EB0302A0FB0113A2F50002E3
:104B4000002918BF43F001035B0028BF4FEA33037D
:104B500042EB22425FEA132C4CEBC2502EBFBCEB5F
:104B6000436FB2F57C0F70474FEA036CBCF1004F06
:104B700008BF20F00100B2F57C0F38BF70470BD59D
:104B800082F0FF0212F5803FC8BF704700F1C040BD
:104B9000D8BF00F00040704700F5000C5FEA4C0CF5
:104BA00048BF7047B0F1C04000F073B890EA010F01
:104BB0000CEAD11348BF42F48072624538BF6345A6
:104BC00004D280EA010000F00040704710B500F008
:104BD0001AF800BF8900013E00F007B800F009B8DC
:104BE0005FEA410C5FEA1C6C08D080EA010000F02B
:104BF00050B85FEA400C5FEA1C6CF6D14FF0004001
:104C0000A0F5800070470EF1020E2EF0030E5EF844
:104C1000044B244204D44FEA4102B2F17F4F11D831
:104C20004FEA4003B3F17F4F0CD80ED14FEAD07C4E
:104C3000B2F17F4F0CEB4C0C0CF1020C08BF4CEBAB
:104C4000D17C04E04FF0080C01E04FEAD17C0CEB82
:104C50004C0324FA03F404F00704B4F1040C06D264
:104C60000EEB840CBDE810404CF0010C6047DFE80F
:104C70000CF0070802024FF00040A0F5800010BDC4
:104C80000846420018BFD2F1807288BF00F0004091
:104C900010BDFF2141EAD050C005704790EA010FD6
:104CA00048BF81F000413FF5A8AD421A04D882F018
:104CB0000042A0EB020011444FEAD0524FF07F4C6B
:104CC0001CEA410FA2EBD15318BF9CEA026F4AD0F5
:104CD0004FF0004C4CEA00204CEA012121FA03FC81
:104CE000B0EB0C0C0FD412F0FE0F36D05FEA4C0084
:104CF0001DD5001240EBC25038BF70471CF03F0F6B
:104D000018BF70470BE0A2F101025FEA1C2040EBE4
:104D1000C25038BF70471CF07F0F18BF7047C3F1F7
:104D20002003994014BF401E20F001007047800806
:104D30004FEA122308BF7047B0FA80FCA2EB0C02C6
:104D4000CCF1280C60FA0CF093EA122F04BF00EBB0
:104D5000C25070474FEAC3707047130A5FEADC1015
:104D600008BF7047F6E79CEA026F04D010EA5C0FB8
:104D700008BF0020704710B5FFF745FF40DFF63E43
:104D800081F00040704700000000000000000000BB
:104D900000000000040404040404000400000014E3
:104DA0000A0A0000000000000000000014143F1474
:104DB0000A3F0A0A000000041E1505060C14150F10
:104DC0000400000012150D0A142C2A120000000025
:104DD000040A0A1E1515093600000002020100002F
:104DE0000000000000000020100808080808081053
:104DF0002000000204080808080808040200000057
:104E00000004150E0E150400000000000404041F29
:104E10000404040000000000000000000000000284
:104E2000020100000000001F000000000000000060
:104E30000000000000000002000000100808080444
:104E400004020202010000000E1111111111110ED5
:104E500000000000040604040404040E0000000026
:104E60000E1111080402011F000000000E11100CA9
:104E70001010110E00000000080C0A0A091E081884
:104E8000000000001F01010F1010110E00000000B3
:104E90000E09010F1111110E000000001F09080476
:104EA00004040404000000000E11110E1111110E73
:104EB000000000000E1111111E10120E0000000063
:104EC00000000400000000040000000000000004D6
:104ED0000000000404000020100804020408102050
:104EE0000000000000001F00001F00000000000282
:104EF0000408102010080402000000000E11110820
:104F000004040004000000000E111915151D011EF7
:104F10000000000004040C0A0A1E12330000000006
:104F20000F12120E1212120F000000001E110101CA
:104F30000101110E000000000F1212121212120FC6
:104F4000000000001F120A0E0A02121F00000000DB
:104F50001F120A0E0A020207000000001C120101C3
:104F60003911120C000000003312121E12121233FB
:104F7000000000001F0404040404041F00000000DB
:104F80003E080808080808090700000037120A064A
:104F90000A0A123700000000070202020202223F42
:104FA000000000001B1B1B1B151515150000000041
:104FB0003B1216161A1A1217000000000E111111DA
:104FC0001111110E000000000F12120E0202020752
:104FD000000000000E1111111117190E1800000029
:104FE0000F12120E0A121237000000001E110106E5
:104FF0000810110F000000001F1504040404040E23
:1050000000000000331212121212120C00000000F5
:105010003312120A0A0C0404000000001515150EC4
:105020000A0A0A0A000000001B0A0A04040A0A1BF2
:10503000000000001B0A0A040404040E0000000023
:105040001F0908040402121F0000001C04040404C9
:10505000040404041C0000020202040408080810EE
:105060000000000E08080808080808080E000004E0
:105070000A00000000000000000000000000000026
:1050800000000000003F00040000000000000000DD
:10509000000000000000000C121C123C0000000088
:1050A0000302020E1212120E000000000000001C8B
:1050B0001202021C000000001810101C1212123CF8
:1050C000000000000000000C121E021C0000000086
:1050D0003804041E0404041E000000000000003C0C
:1050E000120C021E221C00000302020E12121237C2
:1050F00000000000040000060404040E000000008C
:105100000800000C08080808080700000302023A1B
:105110000A0E123700000000070404040404041FF0
:10512000000000000000000F15151515000000001C
:105130000000000F12121237000000000000000CE7
:105140001212120C000000000000000F1212120ECA
:10515000020700000000001C1212121C1038000090
:105160000000001B06020207000000000000001EF5
:10517000020C101E000000000004040E04040418B9
:10518000000000000000001B1212123C0000000092
:1051900000000037120A0C04000000000000001597
:1051A000150E0A0A000000000000001B0A040A1B7A
:1051B0000000000000000037120A0C040403000085
:1051C0000000001E0804041E00000018080808045F
:1051D0000808080818000808080808080808080847
:1051E0000808000604040408040404040600022558
:1051F0001800000000000000000000000000000097
:105200000000000000000000000000000008080886
:105210000808080800001818000000486C24120054
:105220000000000000000000000000000024242412
:105230007F1212127F12121200000000081C2A2A8C
:105240000A0C1828282A2A1C080800000022251504
:1052500015152A585454542200000000000C121254
:10526000120A76252911916E00000006060403003B
:1052700000000000000000000000004020101008A6
:105280000808080808101020400000020408081050
:105290001010101010080804020000000000080898
:1052A0006B1C1C6B080800000000000000000808D0
:1052B00008087F080808080000000000000000003F
:1052C00000000000000006060403000000000000CB
:1052D0000000FE00000000000000000000000000D0
:1052E0000000000000000606000000008040402092
:1052F00020101008080404020200000000182442D4
:1053000042424242424224180000000000080E08B7
:10531000080808080808083E00000000003C424257
:10532000422020100804427E00000000003C42425F
:10533000201820404042221C00000000002030289D
:10534000242422227E20207800000000007E020219
:10535000021A26404042221C0000000000382402AD
:10536000021A26424242241800000000007E222237
:10537000101008080808080800000000003C42421D
:10538000422418244242423C0000000000182442FB
:10539000424264584040241C00000000000000000D
:1053A000181800000000181800000000000000009D
:1053B0000008000000000008080400000040201061
:1053C0000804020408102040000000000000000053
:1053D0007F0000007F0000000000000000020408C1
:1053E000102040201008040200000000003C42424F
:1053F000464020101000181800000000001C225A1F
:10540000555555552D42221C000000000008081873
:105410001414243C224242E700000000001F222214
:10542000221E22424242221F00000000007C424213
:10543000010101010142221C00000000001F224264
:10544000424242424242221F00000000003F4212FC
:10545000121E12120242423F00000000003F4212A0
:10546000121E12120202020700000000003C22225B
:10547000010101712122221C0000000000E74242CC
:1054800042427E42424242E700000000003E0808DD
:10549000080808080808083E00000000007C1010FA
:1054A0001010101010101010110F000000772212B1
:1054B0000A0E0A12122222770000000000070202E0
:1054C000020202020202427F00000000007736362C
:1054D00036362A2A2A2A2A6B0000000000E34646B4
:1054E0004A4A52525262624700000000001C2241A8
:1054F000414141414141221C00000000003F424225
:1055000042423E020202020700000000001C22414B
:10551000414141414D53321C60000000003F424276
:10552000423E1212222242C700000000007C42428A
:10553000020418204042423E00000000007F49085B
:10554000080808080808081C0000000000E742429C
:10555000424242424242423C0000000000E74242D6
:10556000222424141418080800000000006B494984
:1055700049495555362222220000000000E7422406
:1055800024181818242442E7000000000077222283
:10559000141408080808081C00000000007E2120E0
:1055A000101008040442423F000000780808080870
:1055B0000808080808080808780000000202040427
:1055C00008080810102020204040001E1010101065
:1055D00010101010101010101E00003844000000B1
:1055E00000000000000000000000000000000000BB
:1055F000000000000000000000FF0006080000009E
:10560000000000000000000000000000000000009A
:10561000003C4278444242FC0000000000030202C9
:10562000021A26424242261A000000000000000032
:10563000003844020202443800000000006040408C
:1056400040784442424264D800000000000000005C
:10565000003C427E0202423C0000000000F088084C
:10566000087E08080808083E00000000000000004E
:10567000007C22221C023C42423C00000003020249
:10568000023A4642424242E700000000000C0C0091
:10569000000E08080808083E000000000030300036
:1056A0000038202020202020221E000000030202BB
:1056B0000272120A1612227700000000000E08087B
:1056C000080808080808083E000000000000000064
:1056D000007F9292929292B70000000000000000BA
:1056E000003B4642424242E700000000000000004A
:1056F000003C42424242423C0000000000000000E8
:10570000001B26424242221E020700000000000049
:10571000007844424242447840E00000000000002B
:1057200000774C040404041F000000000000000087
:10573000007C42023C40423E0000000000000008A5
:10574000083E0808080808300000000000000000BB
:1057500000634242424262DC0000000000000000A0
:1057600000E74224241408080000000000000000A4
:1057700000EB4949555522220000000000000000BE
:10578000007624181818246E0000000000000000A5
:1057900000E7422424141808080700000000000055
:1057A000007E22100808447E000000C02020202037
:1057B0002010202020202020C000101010101010D9
:1057C0001010101010101010101000060808080813
:1057D000081008080808080806000C32C20000007B
:1057E00000000000000000000000C9EE000027FCDF
:1057F000140414A4811042084040104017FC2040BB
:10580000E0E0215022482C4620400040DBDA110421
:105810001124112411241124FD24112411241124F4
:10582000112411241D24E124422402040404CAD0BA
:105830000200010000007FFC0100010001003FF8B0
:105840002108210821082108212821100100010038
:10585000B5E70000010001001FF0610C41044104A4
:105860007FFC4104410441047FFC0100010201026C
:1058700001FCD7D3000000003FF80010006000805A
:10588000010000807FFE004000400020002000203A
:1058900018400780BCBC10201020102013FEFC20F4
:1058A0001020102015FC18843088D048105010208B
:1058B000105051882606CAF5010001200110011080
:1058C0007FFC038005400540092011102108410498
:1058D0008102010001000100D3D002000200FFFE9E
:1058E000040004000FF0081018102FF04810881062
:1058F0000FF00810081008500820CFDE00007BF8D9
:105900004A08520853F8620852084BF84A444A4879
:105910006A3052204210428843064200B9AB0080F0
:1059200004800480084008401020201042088206AD
:1059300004000440082010203FF010100000CBBEEF
:1059400000003FF8000800087FE8000800081F88F2
:1059500010881088108810881F8810880028001070
:10596000BBB600800080FC8004FC050449082A4086
:105970001440104028A024A04510811002080404FF
:105980000802D3AD00002080133C1224022402241C
:10599000F2241224122412B41328122010202820DA
:1059A00047FE0000C4FA0900090011FC3204544803
:1059B00099501148124414441140108002005104BF
:1059C000511290120FF0B4BF00000020102013FEFF
:1059D000202026244A247A241224222423FC7C20FA
:1059E000002204227822003CC9AB00000000040021
:1059F0000FF0102020207FFC20842084208420842D
:105A00003FF82000200220021FFECCEE0000000024
:105A1000204023FE204079FC220423FC220423FCA6
:105A2000220423FC3A0465FA01980204B3E400005E
:105A3000010001007FFE02200410040808043FFC5E
:105A4000044204400440044208421042607EBED832
:105A500000000000207E3E804880488048FE48824A
:105A60007F8208820C8214FA12842280218040FEF8
:105A7000D0CE000000007F842208223022C0220203
:105A800022047FC8223022C22202220422082230AD
:105A90004040BBAD000000007FFE00000FF0111081
:105AA0001110111051125FF25112511251124FF296
:105AB00040027FFCD4B2000000007FFE47E24812A3
:105AC000481247E24FF250125012511251124292B4
:105AD0004472580A3FFCCDBC000000003FFE440267
